:20000000008020205B3E00006736000067360000000000000000000000000000000000004D
:200020000000000000000000000000006736000000000000000000006736000067360000E9
:2000400067360000673600006736000067360000393C0000673600006736000067360000E0
:2000600000000000673600006736000000000000000000006736000067360000673600006F
:200080006736000067360000673600006736000067360000673600000000000000000000B2
:2000A00067360000673600000000000000000000673600000000000067360000673600002F
:2000C00000B5C3B0FC4DFD4C01201B9000021F9020A81A907C2103F050FE03F0C1FDF848A8
:2000E000102101600D211E91204603F049FD0A211D91204603F044FD42210991204603F029
:200100003FFD4F26204631461C9603F039FD2046314603F035FD54210A91204603F030FDDE
:200120002C211891204603F02BFD472620463146179603F025FD52210791204603F020FDBB
:2001400041211691204603F01BFD5921204603F017FD5F211591204603F012FD44210691B4
:20016000204603F00DFD452720463946199703F007FD2046099903F003FD552114912046A8
:2001800003F0FEFC2046314603F0FAFC20461E9903F0F6FC20461D9903F0F2FC02F08CFD32
:2001A0004E210891204603F0EBFC20461C9903F0E7FC20460A9903F0E3FC2046394603F053
:2001C000DFFC2046189F394603F0DAFC48212046059103F0D5FC43211391204603F0D0FC89
:2001E00030262046314603F0CBFC35211291204603F0C6FC2046394603F0C2FC39212046A8
:2002000003F0BEFC3621204603F0BAFC2046314603F0B6FC2046314603F0B2FC20463E46E1
:20022000394603F0ADFC3821204603F0A9FC2046089F394603F0A4FC3121204603F0A0FCE6
:2002400020461E9903F09CFC20461D9903F098FC2046394603F094FC20461C9903F090FC51
:2002600020460A9903F08CFC2046199903F088FC2046314603F084FC2046129903F080FC9B
:2002800056212046049103F07BFC2046314603F077FC2046179903F073FC2046394603F0EF
:2002A0006FFC2046069903F06BFC2046159E314603F066FC4D211791204603F061FC20465D
:2002C000149903F05DFC53211491204603F058FC20460A9903F054FC2046314603F050FCF7
:2002E0002046099903F04CFC2046199903F048FC2046314603F044FC2046139903F040FC1B
:2003000020461C9F394603F03BFC2046179E314603F036FC2046314603F032FC2046394679
:2003200003F02EFC2046089903F02AFC20461E9903F026FC20461D9903F022FC204614990E
:2003400003F01EFC20460A9903F01AFC2046079F394603F015FC2046199903F011FC204671
:20036000169E314603F00CFC2046179903F008FC2046189903F004FC2046394603F000FC6C
:200380002046314603F0FCFB5721204603F0F8FB20461E9903F0F4FB20461D9903F0F0FBD9
:2003A0001A9810301A903FA8C01C1D903FA8C01C1C903FA8C01C03903FA8C01C02903FA830
:2003C000C01C01903FA8C01C009000200B9010E00D21204603F0D4FB0A21204603F0D0FB0D
:2003E000354D3F4803F027FD1999481C042900D358E1199003E000203A4908702E4D2868DC
:20040000400700D598E0ED695221204603F0B8FB5821204603F0B4FB2C21204603F0B0FBA1
:200420003021204603F0ACFB7821204603F0A8FB2806000F2C4E315C204603F0A1FB0F206E
:200440002840315C204603F09BFB0D21204603F097FB0A21204603F093FB22480378002B7D
:200460000FD0E9B20D2901D00A2911D1002BC5D000251E48C55401F087FE1A4805700E4DDA
:20048000BDE729466139C9B21A290AD329460AE01E2BB0D8591C134A11701448C554064DCF
:2004A000ADE729462039C9B23F391829D9D805A2515C49008F44C0460891104000801040CC
:2004C00000E100E01D1C1C31361C1C1C1C1D1C1C1C1C1C1C1C1C1C3B22271C1C2C00C04628
:2004E00000A8610041012020933F0000A0002020B7E7E84801F048FEE74D80E7E74801F0FF
:2005000043FEE54D7BE7E64801F03EFEE24D76E7E44801F039FEE04D71E7E34801F034FEF8
:20052000DD4D6CE7E14801F02FFEDB4D67E7E04801F02AFED84D62E7DE480078022800D139
:200540004FE7002511E01E9989B292B251189AB25118D94A126892B2511889086A0020ABEB
:2005600099526D1C082D00D18BE0E80701D0D34801E0D24810301B9BD14F19030160D14814
:200580001030A907014600D5CE491A040A60042D00D3CC48590401601F9E304603F04BFC6D
:2005A00000203870C84A116831431160C74A116831431160397800290BD120BF3978002925
:2005C00007D120BF3978002903D120BF39780129F3D1B94909681E913870BB490A681F9E3B
:2005E00032430A60B94B1A6832431A603A78002A0BD120BF3A78002A07D120BF3A78002AA1
:2006000003D120BF3A78012AF3D1AB490A683870AD490B681F9F3B430B60AC4E33683B4355
:20062000A74933600B78002B0BD120BF0B78002B07D120BF0B78002B03D120BF0B78012B59
:20064000F3D19D4B1B6808709F4F3E681F990E433E609E4F3E680E433E6099490E78002EA0
:2006600000D070E720BF0E78002E00D06BE720BF0E78002E00D066E720BF0E78012EF1D198
:2006800061E76A21924F1391795C20AA1288012926D14020385A6023FB5C012B31D1821A12
:2006A00031D331E04821204603F06AFA4221204603F066FA2C21204603F062FA4F2120460B
:2006C00003F05EFA4B21204603F05AFA0D21204603F056FA0A21204603F052FA0B9888E6FE
:2006E0007C4B9A1A00D2024620AB1A82322A1B9D00D8054612955B88764DEB1A2AD2034630
:2007000028E0121A00D2002250203B5AFF2005469835AB4200D82B46DD0820AB1A8296B2AB
:20072000AE4201D8002500E0012512955B88099D7D5B6126BE5D002E50D0EB1A00D20023D3
:20074000079D7D5B002D05D09830854200D80546E80800E0322020AD6B829BB2984201D392
:20076000002000E00220119090B2149018181690A8880029159318D00699795A6222BA5C05
:20078000002A2ED0081A00D200200A99795AFF2632469832914200D81146C90820AA908291
:2007A00085B28D4220D800201FE04A4A151A0021824200D20D4620AA95820426322D30466F
:2007C00000D808461090D088424B181A00D20846D0823228189023D80F9123E05B1BAED333
:2007E000AEE7401AD0D3D0E704201090D0884621795A6322BA5C002A1FD0081A00D2002092
:200800000499795A32469832914200D81146C90820AAD08280B21890884211D8002010E09A
:2008200008200F901089181A00D20846108332281E95179020D80E9120E0401ADFD3DFE756
:2008400008200F9010890599795A6422BA5C002A1DD0081A00D200205821795A3246983272
:20086000914200D81146C90820AA108380B21790884231D8002030E001200E9050891D1A9D
:2008800000D20D465583322D42D80D9142E0401AE1D3E1E73040000008911040284000008B
:2008A000264000002E40000032400000344000002C400000420120208062554090120A402C
:2008C0004001202090320A404810004004110040C0002020DC05000001200E9050894A21BA
:2008E000795A6522BA5C002A2BD0081A00D200201E955A21795A32469832914200D811460A
:20090000C90820AA508385B28D421DD800201CE002200D909089181A00D2084690833228BB
:2009200000D80E460C96D2899A1A00D20A461E99169B5918189BC918179BC91849190E1830
:2009400040E0401AD3D3D3E702200D9090894C21795A6622BA5C002A12D0081A00D20020E7
:200960005C21795A32469832914200D81146C90820AA908380B23346884204D8002103E0E0
:20098000401AECD3ECE704210C91D189089ABA5A6726BE5D002E44D0521A00D200221E9998
:2009A000169E7118189E8919179E891949190E185E21795A002905D09833994200D8194696
:2009C000C90800E0322120ABDA8392B20023914201D3169301E008211691B618194627D05F
:2009E0001899179B591A1F9BF4334B431E99691ACA4D6943159D401BC94D6843149D521BC9
:200A0000C84D6A43C91808188018314602F040FF0146B42E0BD3F920C043814204DA0123EB
:200A200006E08A1ABAD3BAE7FA2900DDD9E20223F44800780128F44D00D9D2E4159118961D
:200A400017935221204603F09BF84121204603F097F85721204603F093F82C21204603F041
:200A60008FF8002008E02C21204603F089F81E99081D042900D19DE01E90410020A80F465D
:200A8000435A3FAE10213046E04A02F09FFF3078002816D01D9EB51EC1B2204603F070F8F3
:200AA000297800290DD0751E204603F069F82978002906D0204603F063F83078F61C00280C
:200AC000E9D12C21204603F05BF820A8C01943883FAE10213046CD4A02F078FF3078002813
:200AE00016D01D9EB51EC1B2204603F049F8297800290DD0751E204603F042F829780029DE
:200B000006D0204603F03CF83078F61C0028E9D12C21204603F034F820A8C01983883FAE6B
:200B200010213046B94A02F051FF3078002816D01D9EB51EC1B2204603F022F829780029D5
:200B40000DD0751E204603F01BF82978002906D0204603F015F83078F61C0028E9D12C21CA
:200B6000204603F00DF820A8C019C3883FAE10213046A64A02F02AFF3078002800D172E792
:200B80001D9DAE1EC1B2204602F0FAFF3178002900D168E76E1E204602F0F2FF3178002972
:200BA00000D160E7204602F0EBFF2878ED1C0028E7D158E74121204602F0E2FF43212046AE
:200BC00002F0DEFF5421204602F0DAFF2C21204602F0D6FF002008E02C21204602F0D0FFAA
:200BE0001E99081D042900D19EE01E9045001A98435B3FAE10213046FD4A02F0E7FE307800
:200C0000002816D01C9EB71EC1B2204602F0B8FF397800290DD0771E204602F0B1FF3978B0
:200C2000002906D0204602F0ABFF3078F61C0028E9D12C21204602F0A3FF1A9845196B88CD
:200C40003FAE10213046EA4A02F0C0FE3078002816D01C9EB71EC1B2204602F091FF3978CB
:200C600000290DD0771E204602F08AFF3978002906D0204602F084FF3078F61C0028E9D1D1
:200C80002C21204602F07CFFAB883FAE10213046D74A02F09BFE3078002816D01C9EB71E7C
:200CA000C1B2204602F06CFF397800290DD0771E204602F065FF3978002906D0204602F0EE
:200CC0005FFF3078F61C0028E9D12C21204602F057FFEB883FAE10213046C54A02F076FEA3
:200CE0003078002800D177E71C9DAE1EC1B2204602F046FF3178002900D16DE76E1E204677
:200D000002F03EFF3178002900D165E7204602F037FF2878ED1C0028E7D15DE7DC05000079
:200D2000C4090000AC0D00004521204602F028FF52262046314602F023FF2046314602F010
:200D40001FFF2C21204602F01BFF3FAE10213046A84A159B02F03AFE30780028039D15D001
:200D6000AE1EC1B2204602F00BFF317800290DD06E1E204602F004FF3178002906D020462E
:200D800002F0FEFE2878ED1C0028E9D12C262046314602F0F5FE5321204602F0F1FE552195
:200DA000204602F0EDFE4D21204602F0E9FE2046314602F0E5FE3FAE102130468C4A189B74
:200DC00002F004FE3078002816D0029DAE1EC1B2204602F0D5FE317800290DD06E1E2046BF
:200DE00002F0CEFE3178002906D0204602F0C8FE2878ED1C0028E9D11898B32808D8002554
:200E000007E0C04642012020089110401540000001252C262046314602F0B2FE4C2120465A
:200E200002F0AEFE4921204602F0AAFE4E21204602F0A6FE4521204602F0A2FE2046314604
:200E400002F09EFE3FAE10213046694A2B4602F0BDFD30780028654F16D0019DAE1EC1B259
:200E6000204602F08DFE317800290DD06E1E204602F086FE3178002906D0204602F080FEFA
:200E80002878ED1C0028E9D12C262046314602F077FE4D21204602F073FE4121204602F040
:200EA0006FFE5321204602F06BFE4B21204602F067FE2046314602F063FE3021204602F08E
:200EC0005FFE7821204602F05BFE474D0C982818169940180D9940180E99415C204602F052
:200EE0004FFE1198281812994018109940180F99415C204602F044FE2046314602F040FECC
:200F00005421204602F03CFE5521204602F038FE5221204602F034FE4E21204602F030FED4
:200F20002046314602F02CFE17988000324909580878002816D0CD1CAE1EC1B2204602F09F
:200F40001FFE317800290DD06E1E204602F018FE3178002906D0204602F012FE2878ED1C12
:200F60000028E9D12C262046314602F009FE4321204602F005FE4121204602F001FE4C2182
:200F8000204602F0FDFD2046314602F0F9FD13983B5C3FAE10213046154A02F017FD307857
:200FA000002801D1FFF714FA009DAE1EC1B2204602F0E6FD3178002901D1FFF709FA6E1EF3
:200FC000204602F0DDFD3178002901D1FFF700FA204602F0D5FD2878ED1C0028E5D1FFF7A4
:200FE000F7F9032324E5C046933F0000C0002020154000001D400000A43F0000F0B5FFB011
:201000008EB0049306920646929802900025E84305908C913468204602F006FF21188B9507
:2010200003918C4200D3BCE00020879087A908738890059889902F46049D2078002800D188
:20104000B2E0252805D0641C34600699A8477F1CF3E78B97601C306087AC2046314600F097
:20106000BBF88CAA2046314600F0D7F8306801780B46683B0122D341092B2BD87B441B7925
:201080005B009F4404130A2727271627271943788799682B19D1520204E0437887996C2BFD
:2010A00010D1120211438791801C12E08799D20204E08799520301E0879912030A43879278
:2010C000401C06E0401C402201E0401C2022114387910178441C346087A80173732913D096
:2010E0006E291DD1879832490840411E02464A408A423CD900282DD0414201402D48414395
:20110000C80E2DA1085C26E087A80078400619D4009587A88CAA8BAB069900F03DF92AE0E8
:2011200007AD87A98CAA284600F08CF9024628460699029B9847411C059D00D0C5198B9514
:2011400003991AE0009587A88CAA8BAB069900F0C0F810E02020401F082808D878440079AE
:20116000400087441904040D14040D0404008C9802C88C900F6003998B9D681C13D050E72E
:20118000F8178C9904C98C9117605060F3E78C9802C88C900F70EEE78C9802C88C900F8039
:2011A000E9E72F4600E0059F38467FB00EB0F0BD603F000031B57C0700011C021D0E1803E1
:2011C0001E16140F191104081F1B0D17151310071A0C12060B050A0910B50A680124E3073E
:2011E0001AD01378302B0CD0232B0ED02B2B0AD02D2B04D00024202BF1D1042306E0012359
:2012000004E0102302E0022300E0082304681C430460521C0A60E1E710BDFEB516460D46A7
:201220000446086802782A2A10D13068011D316000686060002805D54042606020680121E8
:20124000014321602868471C2F6017E00021303A092A08D84218531C2B60435C6F467B543B
:201260005278491CF3E76A460023535412784718002A03D0684602F0CDFB606038782E28D7
:2012800026D1781C286079782A2908D13068011D31600068A0602868401C2860FEBD002020
:2012A0003039092908D839188A1C2A604A786B461A548978401CF3E76A460021115410785C
:2012C000002804D0684602F0A5FBA060FEBDA160FEBDF0B587B01E460C9F13681C1D146048
:2012E0001D68002D3AD0049106908468002C04D4284602F091FD844203D3284602F08CFDA4
:20130000044606984068A042039000DC2046014630680191401805940399A142029630607D
:201320000EDD06980078C0070AD1059801990E1A0024B44204DA20200499B847641CF8E778
:201340000026049C069805998E420ADA2868010A18D12D1D2146B847761CF3E70020B84718
:2013600018E00599039A8A4214DD0078C00711D00198451A0024AC420CDA20200499B84791
:20138000641CF8E70020C0430299086002F058FD5821016007B0F0BDF0B585B00C460646CB
:2013A0000A9D1068011D116000680490002844D00393B768002F04D4049802F035FD874202
:2013C00003D3049802F030FD074602967268BA42114600DC3946039B186800914018019275
:2013E000BA4218600FDD02980078C0070BD10098C01B039000260398864204DA20202146C4
:20140000A847761CF7E70026BE4205DA0498805D2146A847761CF7E70198B84210DD02980F
:201420000078C0070CD00098C61B0027B74207DA20202146A8477F1CF8E700202146A84791
:2014400005B0F0BDF0B589B005920E4604467F20800027184868039000250795FF21049100
:20146000FE3120222046019202F080FC3046089702977D70367B31466339152906903DD84C
:2014800001228A40604B1A42069822D007A908AA059B00F0BDF806980025067B012731463E
:2014A0006F390929059504D801228A4057490A423FD1582E3DD0016802230B40079A002ABC
:2014C00027D008994A1E08922D220A705F425F412FE0002912D1059B1A68111D196012680A
:2014E000D1B24D424D410499FC316118089102990A70026802218A430260CEE7252E02D0C5
:20150000582EC3D0CAE70020607025202070012078E0002B07D149070BD5089A511E0891E6
:201520000199117005E0089A511E08912B2111700027039903976518089B0178C907264602
:2015400008D10299491CC91A42689142264601DC691A4E1C591C04984300002730463A46AB
:2015600002F0B8FB08900599002903D0411C0891077000E00146A94206D8481E691A491CE9
:20158000202202F0F3FB2F7006980078C00606D4311B2022204602F0E9FB059D2EE0A64272
:2015A000059D2BD0311B302720463A4602F0DEFB069B07984142414103980140012905D119
:2015C0001878400702D43046214604E03078611C2070701C37701A7B412A0CD0582A05D082
:2015E000612A08D0782A01D0702A07D11B781B0701D4612A02D142784A704770204602F038
:2016000013FC401909B0F0BD4230240043020000F8B514460F4605468068002804D4286802
:2016200010218843286001E00120A860287B1026582808D0782806D0702804D06F2801D1A0
:20164000082600E00A262846194600F055F8AA68002A09D102460A4306D12878000749D5FB
:201660002B7B0020024612E02B7B642B03D16423002905D40AE0692B08D1002906D56923F1
:2016800001223A60002240428A4100E00A4600941146324600F0CEF8A968884206DA401CBE
:2016A00021684A1E226030220A70F5E7287B582803D0782801D070280FD1297809070CD59E
:2016C000702800D1782021684A1E226008702068411E216030210170287B6F280AD128783F
:2016E000000707D520684178302903D0411E216030210170F8BDC04610B5037B702B05D189
:201700000868021D0A60006800227BE002683E481040421E04465440944216D9002807D0A9
:201720004242024039485043C00E39A2105C00E02020401F082808D87844007940008744EB
:201740004C04041E38041E04040000221846643814280DD801248440354804420AD12120B0
:20176000044205D00868021D0A600068C21749E0582B46D10868031D0B60006842E018466E
:201780006438142807D8012282402948024206D12120024203D10020582B024632D108686A
:2017A000C21D072082431046083008601068526828E0002218466438142807D8012484400E
:2017C0001B48044204D121200442CBD1582B18D10868031D0B60007814E000221846643879
:2017E000142807D8012484401148044204D121200442B7D1582B04D10868031D0B60008887
:2018000000E01046114610BD603F000031B57C0700011C021D0E18031E16140F1911040874
:201820001F1B0D17151310071A0C12060B050A0900081200FEB501920D460646582B01D057
:20184000174800E015480090089802903046284305D1029A1068411E116030210170019C30
:201860003046284313D030462946224600F01AF807460D46224602F01BFA301A0099085CFF
:20188000029B19684A1E1A6008703E46E8E70298006802F0C9FA401EFEBDC046713F0000F7
:2018A000823F000080B5102A06D0082A09D1C0084A078018C90880BD00090A078018090993
:2018C00080BD002904D1114602F0E6F8002180BD002302F07DFA80BDF0B589B0D74C532605
:2018E0002046314602F04CF954272046394602F047F941252046294602F042F920463946F5
:2019000002F03EF95521204602F03AF92046314602F036F92C262046314602F031F94321F0
:20192000204602F02DF92046294602F029F94C21204602F025F92046314602F021F9C0496B
:201940006A200B5CBF4A05AD1021284602F03EF82878002817D005A9CD1CAE1EC1B2204629
:2019600002F00EF9317800290DD06E1E204602F007F93178002906D0204602F001F9287841
:20198000ED1C0028E9D12C252046294602F0F8F85721204602F0F4F85F21204602F0F0F8D8
:2019A0004F21204602F0ECF84B21204602F0E8F82046294602F0E4F86820A1490B5CA14A70
:2019C00005AD1021284602F001F82878002817D005A9CD1CAE1EC1B2204602F0D1F831787C
:2019E00000290DD06E1E204602F0CAF83178002906D0204602F0C4F82878ED1C0028E9D1F4
:201A00002C252046294602F0BBF84221204602F0B7F85F21204602F0B3F84F21204602F046
:201A2000AFF84B21204602F0ABF82046294602F0A7F8692082490B5C824A05AD102128465A
:201A400001F0C4FF2878002817D005A9CD1CAE1EC1B2204602F094F8317800290DD06E1E2E
:201A6000204602F08DF83178002906D0204602F087F82878ED1C0028E9D12C252046294659
:201A800002F07EF85721204602F07AF84821204602F076F84921204602F072F85421204666
:201AA00002F06EF84521204602F06AF82046294602F066F805A8C01C0490002008E02C2117
:201AC000204602F05DF80399081D042900D197E0039040005A490F183B8C05AE1021304665
:201AE000584A01F073FF3078002816D0049EB51EC1B2204602F044F8297800290DD0751E75
:201B0000204602F03DF82978002906D0204602F037F83078F61C0028E9D12C21204602F0D0
:201B20002FF87B8C05AE10213046464A01F04EFF3078002816D0049EB51EC1B2204602F059
:201B40001FF8297800290DD0751E204602F018F82978002906D0204602F012F83078F61C10
:201B60000028E9D12C21204602F00AF8BB8C05AE10213046334A01F029FF3078002816D0EF
:201B8000049EB51EC1B2204601F0FAFF297800290DD0751E204601F0F3FF2978002906D0EA
:201BA000204601F0EDFF3078F61C0028E9D12C21204601F0E5FFFB8C05AE10213046214A72
:201BC00001F004FF3078002800D178E7049EB51EC1B2204601F0D4FF2978002900D16EE70F
:201BE000751E204601F0CCFF2978002900D166E7204601F0C5FF3078F61C0028E7D15EE74E
:201C000042212046029101F0BBFF4C21204601F0B7FF4121204601F0B3FF4321204601F01D
:201C2000AFFF4B21204601F0ABFF2C21204601F0A7FF05A8C01C049000200EE00080104044
:201C4000C0002020154000002C21204601F098FF0399081D042900D197E003904000B649EC
:201C60000F183B8E05AE10213046B44A01F0AEFE3078002816D0049EB51EC1B2204601F08A
:201C80007FFF297800290DD0751E204601F078FF2978002906D0204601F072FF3078F61C9C
:201CA0000028E9D12C21204601F06AFF7B8E05AE10213046A14A01F089FE3078002816D0B9
:201CC000049EB51EC1B2204601F05AFF297800290DD0751E204601F053FF2978002906D0E9
:201CE000204601F04DFF3078F61C0028E9D12C21204601F045FFBB8E05AE102130468F4A41
:201D000001F064FE3078002816D0049EB51EC1B2204601F035FF297800290DD0751E2046A7
:201D200001F02EFF2978002906D0204601F028FF3078F61C0028E9D12C21204601F020FF08
:201D4000FB8E05AE102130467C4A01F03FFE3078002800D178E7049EB51EC1B2204601F06D
:201D60000FFF2978002900D16EE7751E204601F007FF2978002900D166E7204601F000FF37
:201D80003078F61C0028E7D15EE754212046019101F0F6FE4821204601F0F2FE5221204689
:201DA000009101F0EDFE2C21204601F0E9FE05A8C01C0490002008E02C21204601F0E0FE84
:201DC0000399081D042900D19BE003904000E9490F1840203B5A05AE10213046E64A01F02D
:201DE000F5FD3078002816D0049EB51EC1B2204601F0C6FE297800290DD0751E204601F0A7
:201E0000BFFE2978002906D0204601F0B9FE3078F61C0028E9D12C21204601F0B1FE0298CE
:201E20003B5A05AE10213046D34A01F0CFFD3078002816D0049EB51EC1B2204601F0A0FE46
:201E4000297800290DD0751E204601F099FE2978002906D0204601F093FE3078F61C0028F0
:201E6000E9D12C21204601F08BFE44203B5A05AE10213046C04A01F0A9FD3078002816D0D1
:201E8000049EB51EC1B2204601F07AFE297800290DD0751E204601F073FE2978002906D0E9
:201EA000204601F06DFE3078F61C0028E9D12C21204601F065FE46203B5A05AE1021304668
:201EC000AD4A01F083FD3078002800D174E7049EB51EC1B2204601F053FE2978002900D173
:201EE0006AE7751E204601F04BFE2978002900D162E7204601F044FE3078F61C0028E7D147
:201F00005AE75321204601F03BFE50212046029101F036FE4121204601F032FE4E2120462F
:201F200001F02EFE2C21204601F02AFE05A8C01C049000200DE0C046C00020201540000033
:201F40002C21204601F01CFE0399081D042900D19BE00390400087490D1802982B5A05AFEE
:201F600010213846844A01F031FD3878002816D0049FBE1EC1B2204601F002FE31780029EC
:201F80000DD07E1E204601F0FBFD3178002906D0204601F0F5FD3878FF1C0028E9D12C218E
:201FA000204601F0EDFD00982B5A05AF10213846714A01F00BFD3878002816D0049FBE1E6F
:201FC000C1B2204601F0DCFD317800290DD07E1E204601F0D5FD3178002906D0204601F0EB
:201FE000CFFD3878FF1C0028E9D12C21204601F0C7FD01982B5A05AF102138465E4A01F0E6
:20200000E5FC3878002816D0049FBE1EC1B2204601F0B6FD317800290DD07E1E204601F083
:20202000AFFD3178002906D0204601F0A9FD3878FF1C0028E9D12C21204601F0A1FD5620EA
:202040002B5A05AF102138464B4A01F0BFFC3878002800D174E7049DAE1EC1B2204601F01C
:202060008FFD3178002900D16AE76E1E204601F087FD3178002900D162E7204601F080FDB9
:202080002878ED1C0028E7D15AE74D21204601F077FD4121204601F073FD5321204601F049
:2020A0006FFD4B21204601F06BFD2C252046294601F066FD3021204601F062FD78210491DA
:2020C000204601F05DFD6C202A490F5C38092B4E315C204601F054FD0F203840315C20465C
:2020E00001F04EFD2046294601F04AFD5421204601F046FD5521204601F042FD52212046A3
:2021000001F03EFD4E21204601F03AFD2046294601F036FD04981749085C401EC0B2022843
:2021200003D880001749095800E015490878002816D0CD1CAE1EC1B2204601F021FD317871
:2021400000290DD06E1E204601F01AFD3178002906D0204601F014FD2878ED1C0028E9D1E4
:202160000D21204601F00CFD0A21204601F008FD09B0F0BDC000202015400000933F0000BD
:202180000C400000B43F0000F0B581B0002800D1CCE20178002900D1C8E2421C15460C465B
:2021A00001E02C786D1CE3B2092BFAD0202BF8D0002B02D16D1EF34B0DE02346613BDBB225
:2021C0001A2B00D2203CE3B2482B1CD12C78ED4B5B1C00E02C78ED1CE4B2092C01D0202CCF
:2021E0000BD1AC1E2478092C01D0202C05D16C1E2478092CEED0202CECD0002C03D11B78C1
:20220000002B00D197E000240B4602E003195B78641CDDB2092DF9D0202DF7D0002D1CD1C9
:202220000619D94CF51C01E02B78ED1CDBB2092B01D0202B0BD1AB1E1B78092B01D0202B57
:2022400005D16B1E1B78092BEED0202BECD0002B3BD12378002B38D16DE01D46613DEDB2A0
:202260001A2D00D2203BDBB2482B2ED105196E78C54C0023002E00D17DE13746613FFFB288
:202280001A2F00D2203EF6B2452E1ED1AE78002E00D1F0E13746613FFFB21A2F00D2203E7E
:2022A000F6B24C2E11D1EE78002E00D1E9E13346613BDBB21A2B00D2203EF3B2502B04D1DF
:2022C0002E1D2B79002B241DACE70B46154602E06C1C2B782546DCB2092CF9D0202CF7D04D
:2022E000002C02D16D1EA94C0DE01C46613CE4B21A2C00D2203BDBB23F2B20D12B78A34CF0
:20230000641C00E02B78ED1CDBB2092B01D0202B0BD1AB1E1B78092B01D0202B05D16B1EED
:202320001B78092BEED0202BECD0002B07D12378002B0B4608D100F0BFFC01B0F0BD0B46C4
:2023400002E0541C13782246DCB2092CF9D0202CF7D0002C02D1521E8D4C0DE01C46613C65
:20236000E4B21A2C00D2203BDBB2522B1BD11378874C641C00E01378D21CDBB2092B01D095
:20238000202B0BD1931E1B78092B01D0202B05D1531E1B78092BEED0202BECD0002B02D1B1
:2023A0002278002A27D0002202E081184978521CCBB2092BF9D0202BF7D0002B49D1841829
:2023C000FA4AE31C01E01978DB1CC9B2092901D020290BD1991E0978092901D0202905D154
:2023E000591E09780929EED02029ECD000295BD11178002958D1EE4800210170ED4C4D2151
:20240000204601F0BDFB4F21204601F0B9FB4421204601F0B5FB4521204601F0B1FB2C2110
:20242000204601F0ADFB5221204601F0A9FB4121204601F0A5FB5721204601F0A1FB0D213D
:20244000204601F09DFB0A21204601F099FB01B0F0BD0B46613BDBB21A2B00D22039C9B2B4
:20246000522921D183185C78D04A0021002C00D184E02546613DEDB21A2D00D2203CE4B231
:20248000412C11D19C78002C00D1F7E021466139C9B21A2900D2203CE1B2572904D1DC1C38
:2024A000D9780029D21C8CE7C349044601F094F8002805D1C149204601F08EF8002827D06A
:2024C000BB4801210170BB4C4D21204601F058FB4F21204601F054FB4421204601F050FB2A
:2024E0004521204601F04CFB2C21204601F048FB4321204601F044FB4121204601F040FB03
:202500004C21204601F03CFB01F022FC01B0F0BDAB49204601F060F8002805D1A94920465A
:2025200001F05AF8002835D0A14802210170A14C4D21204601F024FB4F252046294601F0A3
:202540001FFB4421204601F01BFB4521204601F017FB2C21204601F013FB5321204601F043
:202560000FFB5421204601F00BFB2046294601F007FB5021C5E76E1C641C53E65C1C521C71
:202580001FE7C04630400000FD3F00002A4000002C4000008C49204601F01EF8002805D16D
:2025A0008A49204601F018F800286DD0814C01F02DFB4321204601F0E3FA4121204601F045
:2025C000DFFA5021204601F0DBFA54252046294601F0D6FA5521204601F0D2FA5221204604
:2025E00001F0CEFA45262046314601F0C9FA2C21204601F0C5FA5721204601F0C1FA4821D0
:20260000204601F0BDFA4921204601F0B9FA2046294601F0B5FA2046314601F0B1FA01F059
:2026200097FBFFF759F96E486A21405C01287DD14321204601F0A4FA41252046294601F0E7
:202640009FFA4C21204601F09BFA2C21204601F097FA5221204601F093FA4521204601F03F
:202660008FFA2046294601F08BFA4421204601F087FA592145E7AE1CA41CD3E59C1C921CFB
:202680009FE6EE1CE41CCDE55149204600F0A4FF002805D14F49204600F09EFF002837D0AE
:2026A000444C01F09DFA43252046294601F068FA41262046314601F063FA5021204601F018
:2026C0005FFA5421204601F05BFA5521204601F057FA5221204601F053FA4521204601F08E
:2026E0004FFA2C21204601F04BFA4221204601F047FA4C21204601F043FA2046314601F0DE
:202700003FFA2046294601F03BFA4B21204684E73149204600F060FF002805D12F4920463D
:2027200000F05AFF002803D0FFF7D6F801B0F0BD204C4521204601F023FA522520462946A1
:2027400001F01EFA2046294601F01AFA2C21204601F016FA5521204601F012FA4E25204630
:20276000294601F00DFA4B21204601F009FA2046294601F005FA4F21204601F001FA57212D
:20278000204601F0FDF92046294601F0F9F95F21204601F0F5F94321204601F0F1F94D215C
:2027A000204601F0EDF94421ABE6C04611400000420120200080104034400000194000006F
:2027C00028400000024000002E400000EB3F000032400000F13F000026400000E43F00008C
:2027E000C0002020F0B58DB0A24C0A8801924F888A880292CA8803920A8904924A890592ED
:202800008A8906920891C9890791002819D00178002916D0C61CB51EC9B2204601F0B0F9C1
:20282000297800290DD0751E204601F0A9F92978002906D0204601F0A3F93178F61C0029EE
:20284000E9D12C262046314601F09AF94D21204601F096F94921204601F092F94E21204696
:2028600001F08EF92046314601F08AF9089801884088884200D3084608998988814200D36B
:2028800001460898C088884200D3084608990989814200D3014608984089884200D30846BA
:2028A00008998989814200D301460898C3898B4200D30B46FD4A09AE1021304601F086F897
:2028C0003078002817D009A9CE1CB51EC1B2204601F056F9297800290DD0751E204601F028
:2028E0004FF92978002906D0204601F049F93078F61C0028E9D12C262046314601F040F962
:202900004D21204601F03CF94121204601F038F95821204601F034F92046314601F030F9DF
:20292000089801884088884200D808460199CA1908998988814200D8014602981218089841
:20294000C088884200D808460399521808990989814200D80146049812180898408988422B
:2029600000D808460599521808998989814200D8014606981018089AD3898B4200D80B46DA
:2029800007994518C94A09AE1021304601F01EF83078002817D009A9CE1CB71EC1B22046C1
:2029A00001F0EEF8397800290DD0771E204601F0E7F83978002906D0204601F0E1F8307836
:2029C000F61C0028E9D12C262046314601F0D8F84121204601F0D4F85621204601F0D0F8F8
:2029E0004721204601F0CCF82046314601F0C8F8EB08AE4A09AE1021304600F0E7FF3078FF
:202A0000002817D009A9CD1CAE1EC1B2204601F0B7F8317800290DD06E1E204601F0B0F88D
:202A20003178002906D0204601F0AAF82878ED1C0028E9D12C262046314601F0A1F853213D
:202A4000204601F09DF84121204601F099F85421204601F095F82046314601F091F80898F0
:202A600001889348401E09188AB292498A4203D3002302E0008010400123089A528812181B
:202A800092B28A4200D25B1C089A9288121892B28A4200D25B1C089AD288121892B28A4268
:202AA00000D25B1C089A1289121892B28A4200D25B1C089A5289121892B28A4200D25B1C0D
:202AC000089A9289121892B28A4200D25B1C089AD289101880B2884200D25B1C734A09AED8
:202AE0001021304600F072FF3078002817D009A9CD1CAE1EC1B2204601F042F831780029DA
:202B00000DD06E1E204601F03BF83178002906D0204601F035F82878ED1C0028E9D12C26B9
:202B20002046314601F02CF84421204601F028F841272046394601F023F85421204601F0A2
:202B40001FF82046394601F01BF82046314601F017F809A8C01C0790002506956D000898A7
:202B6000435B09AF10213846504A00F02FFF3878002816D0079FBE1EC1B2204601F000F896
:202B8000317800290DD07E1E204600F0F9FF3178002906D0204600F0F3FF3878FF1C0028B9
:202BA000E9D12C21204600F0EBFF089845196B8809AF102138463D4A00F008FF3878002820
:202BC00016D0079FBE1EC1B2204600F0D9FF317800290DD07E1E204600F0D2FF31780029A8
:202BE00006D0204600F0CCFF3878FF1C0028E9D12C21204600F0C4FFAB8809AF1021384631
:202C00002A4A00F0E3FE3878002816D0079FBE1EC1B2204600F0B4FF317800290DD07E1E68
:202C2000204600F0ADFF3178002906D0204600F0A7FF3878FF1C0028E9D12C21204600F09E
:202C40009FFFEB8809AF10213846184A00F0BEFE3878002816D0079DAE1EC1B2204600F0F7
:202C60008FFF317800290DD06E1E204600F088FF3178002906D0204600F082FF2878ED1C86
:202C80000028E9D1069D042D05D02C21204600F077FF2D1D61E70D21204600F071FF0A21DF
:202CA000204600F06DFF0DB0F0BDC0461540000002F0FFFF02F00000F0B593B0E54C43212E
:202CC0000B91204600F05CFF6F210591204600F057FF6D2509952046294600F051FF20462A
:202CE000294600F04DFF61211091204600F048FF6E21204600F044FF64210291204600F0D3
:202D00003FFF73211191204600F03AFF3A21204600F036FF20262046314600F031FF48211E
:202D2000204600F02DFF3D2520462946129500F027FF68210691204600F022FF65210E9161
:202D4000204600F01DFF6C210A91204600F018FF70210891204600F013FF2C210F91204687
:202D600000F00EFF2046314600F00AFF5221204600F006FF2046294600F002FF72272046ED
:202D8000394600F0FDFE2046109D294600F0F8FE77210391204600F0F3FE20463146079674
:202DA00000F0EEFE2046119900F0EAFE74210D91204600F0E5FE204639460C9700F0E0FE8D
:202DC00020460E9900F0DCFE2046294600F0D8FE2046099900F0D4FE20460F9900F0D0FEEB
:202DE0002046314600F0CCFE20460B9900F0C8FE2046129900F0C4FE63210B91204600F043
:202E0000BFFE2046294600F0BBFE20460A9900F0B7FE69210191204600F0B2FE622104918F
:202E2000204600F0ADFE2046394600F0A9FE2046294600F0A5FE20460D9D294600F0A0FEA0
:202E400020460E9E314600F09BFE2046029900F097FE2046079F394600F092FE20461199BF
:202E600000F08EFE2046294600F08AFE20460C9900F086FE2046314600F082FE20461099AE
:202E800000F07EFE2046099900F07AFE20460F9D294600F075FE2046394600F071FE5321BA
:202EA000204600F06DFE2046129900F069FE2046119900F065FE20460D9900F061FE2046C5
:202EC000059900F05DFE2046089E314600F058FE2046294600F054FE2046394600F050FE06
:202EE0005721204600F04CFE2046129900F048FE20460B9900F044FE2046109900F040FEFA
:202F00002046314600F03CFE20460D9D294600F037FE75210991204600F032FE20460C9945
:202F200000F02EFE20460E9E314600F029FE2046394600F025FE2046039900F021FE204666
:202F4000069900F01DFE2046019900F019FE20462F46294600F014FE2046314600F010FE99
:202F600020460F9900F00CFE2046079E314600F007FE4221204600F003FE2046129900F017
:202F8000FFFD20460B9900F0FBFD2046109D294600F0F6FD2046089900F0F2FD2046394613
:202FA00000F0EEFD2046099900F0EAFD20460C9900F0E6FD20460E9900F0E2FD20463146C0
:202FC00000F0DEFD2046049900F0DAFD20460A9900F0D6FD2046294600F0D2FD20460B99F2
:202FE00000F0CEFD6B21204600F0CAFD20460F9900F0C6FD2046314600F0C2FD5421204645
:2030000000F0BEFD2046129900F0BAFD2046119F394600F0B5FD20460D9E314600F0B0FDF1
:203020002046294600F0ACFD2046314600F0A8FD2046099900F0A4FD2046394600F0A0FDA5
:203040000D21204600F09CFD0A21204600F098FD13B0F0BD00801040F0B5ABB000907A4FA4
:2030600001200B9005020CA87C2100F086FE0020764E0490059006900790089009900A90C3
:203080000446019028E00CA80188049A521804924188059A521805928188069A521806925E
:2030A000C188079A521807920189089A521808924189099A5218099281890A9A52180A92CD
:2030C000C089039C24187D20C00200F0B4FE0299481C072900D395E002900394019C10E09E
:2030E00088B291B2081899B208185349096889B20818800861000CAA5052641C082C524FCA
:20310000C1D0E00701D04E4801E04D4810300B9B1903016049481030A107014600D54749D2
:203120001A040A60042C00D3444859040160284600F081FE00203070396829433960414AEC
:20314000116829431160317800290BD120BF3178002907D120BF3178002903D120BF3178D5
:203160000129F3D13449096830703A682A433A60344B1A682A431A603278002A0BD120BFB3
:203180003278002A07D120BF3278002A03D120BF3278012AF3D1284A126830703B682B43E7
:2031A0003B60284F3B682B433B603378002B0BD120BF3378002B07D120BF3378002B03D189
:2031C00020BF3378012BF3D11B4B1B6830701E4F3868284338601B4F386828433860307827
:2031E000002800D07CE720BF3078002800D077E720BF3078002800D072E720BF307801280F
:20320000F1D16DE70498C008009908800598C00848800698C00888800798C008C880089829
:20322000C00808810998C00848810A98C0088881E008C8812BB0F0BD8062554090320A405C
:2032400090120A4004110040481000404001202070B54F48038C048EE118490840228152B8
:2032600000220121A3420D4600D815461B1BDC1763401B1B502403536023C554438C458E95
:20328000EC18640842268453AB420C4600D814465B1BDD176B405B1B522543536123C454DA
:2032A000838C858EEC18640844268453AB420C4600D814465B1BDD176B405B1B5425435330
:2032C0006223C454C38CC58EEC18640846268453AB420C4600D814465B1BDD176B405B1B00
:2032E000562543536323C454038D058FEC18640848268453AB420C4600D814465B1BDD176B
:203300006B405B1B582543536423C454438D458FEC1864084A268453AB420C4600D814460E
:203320005B1BDD176B405B1B5A2543536523C454838D858FEC1864084C268453AB420C4631
:2033400000D814465B1BDD176B405B1B5C2543536623C454C38DC48FE5186D084E26855397
:20336000A34200D811461A1BD3175A40D21A5E23C252672281546821415C6922825C0A40C8
:203380006A214254100602D002480121017070BDC000202042012020F0B5394A8218394B51
:2033A000C0183A4D4C790B79002C22D0466F202B02D00524E70100E0354F2E40002B00D196
:2033C00088273E434667846F2C403C438467446B2D4E34404463846B3440846300244465EB
:2033E000846554688F26F643344054609468344094600C688979202B09D006467036002BF7
:2034000015D1641E4460C46E2C40882715E0641E4460C46E2C401E4E3443C466046F2C40AE
:20342000344304671B4D01246707064607E00527FF0164084460C46E2C403C43C46634685D
:203440002C403C433460C46A0F4D2C40C462046B2C4004630024C4640465C46F8F25ED43C3
:203460002C40C46714682C401460194302680A4B1340BD220A40D118891C0160F0BDC04620
:2034800084180000041800008888FDFF24493E0001040000FFFFFFCF4000FFCFF0B58B426C
:2034A00000D1824204D90B0002000021002040E0002B00D1002A0CD10B00020000210020DB
:2034C000002B00D1002A01D0C943C04300F00BFA2FE01C0015000B0002000CB4002126009D
:2034E0002F00FF19764102D2491C4029F9D100201E001700FF19764102D2401C4028F9D1DC
:203500000E1A21002800320000F0F6FB0C0005000CBC00200021A34200D1AA4201D3521B2A
:20352000A341404149416D08E7073D436408761EF1D5059F002F01D03A607B60F0BD002A03
:2035400049D084468B071CD1830722D1102A08D370B4103A78C978C0103AFBD270BC10320B
:2035600038D0042A2CD3082A05D30C2A01D308C908C008C908C008C908C092072AD0920F03
:2035800022E00B780370491C401C521E22D08B07F7D1C30714D18307D8D0121F12D308C9EE
:2035A00003801B0C4380001D121FF8D20AE008C903701B0A43701B0A83701B0AC370001DF3
:2035C000121FF4D2121D05D00B780370491C401C521EF9D160467047B0B500E0401C027887
:2035E000092AFBD0202AF9D0002A1ED00023CC5C002C18D01546613DEDB21A2D00D2203A38
:203600002546613DEDB21A2D00D2203CD2B2E4B2A24226D1C21852785B1C002AE7D1C918BA
:20362000C018002201E0C918C018C31C002001E01A78DB1CD2B2092A01D0202A0BD19A1E27
:203640001278092A01D0202A05D15A1E1278092AEED0202AECD0002A02D109784842484132
:20366000B0BD0020B0BDFEE770B582B01B491C4C204600F05FFB1B492046FFF78DFE1A48EB
:2036800001681A4A0A40026000250095204629462A462B4600F078FB204629462A4600F0A9
:2036A0003BFB204629462A4600F0AEFB01260096204629462A462B4600F066FB204629465D
:2036C000324600F029FB20462946324600F09CFB074886600321016002B070BD2140000090
:2036E00000808640DC3F0000049886407F00FFFF00918640F8B5451C00780023082B32D055
:203700002F78C2070CD16A780F241440E41C122C0BD102242E57F4B2002E08D4EE1C0EE086
:203720006D1C4A1C0F7011461AE0AE1C08E02E1DED7800957F252C40009DED012C191234AD
:203740003D0112095219094DAA420ED0D243002C05D08D5C4F1C0D70641E3946F7E7354644
:2037600040085B1CCAE72846C5E7F8BDFF0F00008446830706D0002A29D001700130013AD2
:203780008307F8D1042A1CD30906090E0B0219430B041943082A10D30B00102A09D370B465
:2037A0000F24161B22400C000D003AC0103EFCD870BC082A01D30AC0083A042A01D302C00C
:2037C000043A002A03D0013A8154013AFCD260467047704710B51249124C204600F002FBB0
:2037E0001149204600F0AAF8104801680322D2039143016001690E4A0A40D032026141696C
:2038000015220A432A218A434261416801221140436893435918416001681143016010BDCE
:203820002440000000801040C03F0000009110400000FFFF10B510490124A00700F00CF997
:203840000E4841680E4A0A4061045118416081680C4A0A4082600C4900220A600821416141
:203860000A490A6A23021A430A620A681A430A6001682143016010BDD43F000000110040FB
:20388000FEFFECFFF8FFE0E080110040281000401CB5002922D04C08002900D54942421025
:2038A0005440002800D5404200230A00904201D95200FBE790425B41904200D3801A914268
:2038C00001D25208F6E71900002C00D54042640000D549420200080011001CBD0100002069
:2038E000FFF777FF1CBD7047104987220A601048042303604A600822026082228A610D4A62
:20390000CA6181220A654A650A66CA65CA648A640A6737210903084A116011630146303944
:20392000032212040A6002607047C0463C804240D0320A4082000400A0120A4070B511225F
:203940001302C218C4580125AC43C4500C888D7825438C882C43C558084E2E40084D254014
:203960007419C4508879CB790343087A184351687E23994318400818506070BDE798FDFF38
:2039800018670000B0B50A480A4941600A4A51600A4B59600A4C61600A4D69600A490160FF
:2039A0001160196021602960102000F044FAB0BD00080A40030000B100280A400088864082
:2039C00000881040000800400100002681B0B0B587B00C460B930592491E22468A41A11AF7
:2039E00003910025049502900BA9069107480090074B05A802AAFDF701FB002C01D0029986
:203A00000D7007B0B0BC02BC01B008474F3B0000A13D000010B50F4A017853185B78401CAF
:203A2000DB06F9D42D2901D02B2901D1027801E0401E0A46431C0020303A092A05D80A245B
:203A4000444310191A785B1CF6E72D2900D1404210BDC046703E0000F0B511221302C218DF
:203A60000C780B4D46590B4F374003262640BC19A9263606A41944514C68C55807263606FF
:203A8000B54334402C19C45048781061F0BDC04608080000FCFFFF001CB50A0017D000238E
:203AA0000124E407A04200D20400944201D95200FBE790425B41904200D3801A914201D207
:203AC0005208F6E719000200080011001CBD01000020FFF77EFE1CBD70B50A480A4C8442A3
:203AE0000CD00A4D0A4EB54208D02A686968501C12789200A25890470835F4E700BF00BF1A
:203B000070BDC0464C400000404000005C4000006C400000FCB4020C0B0CFF242402FF34CD
:203B2000204021400C00444315005D4306005E430F005743320C3B0CA818C01832043B049A
:203B40000025A1186841C9186841FCBC704770B514460D4601466A68A86882420CD9101A17
:203B60008442264600D306462868324600F06CF9286880192860A8680019A860204670BD22
:203B80000A4A80180268120605D50268120602D502681206F6D481610168C90705D00168DF
:203BA000C90702D00168C907F6D17047081100000948002101600948014608390A6803234F
:203BC0009A430A60016801229143016001681202914301607047C04608030B4008010B40C4
:203BE000B0B5084D2C4630342046FFF735FA692001212954FFF72CFB03482146FEF7F2FDCF
:203C0000B0BDC046C0002020F13F0000B0B5084D2C4620342046FFF71FFA682001212954E5
:203C2000FFF716FB03482146FEF7DCFDB0BDC046C0002020EB3F00000748014628390968F8
:203C4000C9B2092906D1054901220A70016812020A4302607047C0464810004040012020F3
:203C600080B5FFF78FFEFFF73FFEFFF7A1FFFFF7FBFCFFF7AFFDFFF7DDFD02489C2100223B
:203C8000425480BD00002020084880F3088800BF00BF00F0E4F8002801D0FFF71DFF002049
:203CA000FCF70EFA012000F0D3F8C0460080202030B514004C4325001C0044436419050095
:203CC00010002900FFF726FF001904000D002100280030BDB0B504460020002B08D0D2B2DA
:203CE0000D782570954204D0641C491C5B1EF7D1B0BD601CB0BD000018B520239B1A04D8E2
:203D0000010000205B42994004E004009140DC402143904018BD000010B592008018044AF1
:203D200083580724A404A34321405918815010BD3018000010B50122120383180C789C601F
:203D40004B7883508978014A815010BD0C11000010B5054C0D212046FFF712FF0A21204684
:203D6000FFF70EFF10BDC046008010400B4611461A4680B5FFF7FCFC80BD0A46002180B58F
:203D8000FFF7F6FC80BD000010B5029CA400001911431943014A815010BDC04650180000D7
:203DA0004B688A689A4204D20A68531C0B6010708A68521C8A60704703228058002805D0E5
:203DC000401E4A1C00230B701146F7E77047000040B584B002AE0096FFF760FB029A039B9B
:203DE00004B040BD10B50122120383180C789C604978815010BD80B50B4603214258C11D79
:203E0000184600F021F880BD92008018014A81507047C0461018000000214258091D002AC8
:203E2000FBD1081F801070470021425C491C002AFBD1481E7047811E091F00BFFCD2704706
:203E4000004870473C01202080B5FFF778FB80BD00F001F8FEE700BF704715E770470120F3
:083E60007047000000000000A3
:203E7000008080808080808080809090909090808080808080808080808080808080808062
:203E9000801804040404040404040404040404040402020202020202020202040404040416
:203EB000040443434343434341414141414141414141414141414141414141410404040434
:203ED000040423232323232321212121212121212121212121212121212121210404040454
:203EF000800000000000000000000000000000000000000000000000000000000000000032
:203F1000000000000000000000000000000000000000000000000000000000000000000091
:203F3000000000000000000000000000000000000000000000000000000000000000000071
:203F5000000000000000000000000000000000000000000000000000000000000000000051
:203F70000030313233343536373839414243444546003031323334353637383961626364F8
:203F900065660030313233343536373839414243444546000C40000007400000CA3F000008
:203FB000F73F000007400000CA3F0000F73F00000000180000000030000053545241494723
:203FD000485400000105000000000003F401000020000000535441545553005748495445B2
:203FF00000424C41434B0052494748540048454C500053544F50004C454654004C4F5354FA
:204010000052415700256C750043414C00256C640008003F0800540053003F0052005700FD
:1040300048004200430000000000000000000000B3
:20404000F5360000F73D0000B93D000002000000C0000000000100000F70FFF04C4000004E
:104060000000202054400000C0002020000000007C
:00000001FF
